:020000040000fa
:080000001011040000000000d3
:020000040000fa
:102220000fdd20000eff27000e01880000000000d7
:102230000c000700c02b2400010020000f00070045
:10224000000020000000e000020032000000020058
:1022500000000000962f0200000000000040da009d
:102260000000fe00600820000000e00002003200d4
:10227000002020009001880000000600a1028800d4
:10228000800078000000eb001a003700e280400078
:1022900054a0b4009101ba00e280400054a0b40000
:1022a0009102ba00e280400054a0b4000002eb00aa
:1022b000472bde00f507b200a6018800602ce10084
:1022c00008003a000049eb000201e8000200390072
:1022d0003420ec0002f0a0008301e900f9ff3e0089
:1022e000040037006128e100010032000082eb00a9
:1022f000040007001101ba000200e000e3ff3a0009
:102300000000060004d0a300e20f49001c003900c1
:10231000810278003549ba000201e8000200390064
:102320003420ec0002f0a0008301e9000f0032002d
:102330002549ba000201e800020039003420ec000f
:1023400002f0a0008301e900080032000400e00070
:102350000600320015c9ba000201e8000200390087
:102360003420ec0002f0a0008301e9008180e80045
:1023700054a0b4000300e000e2ff3a0000000600b1
:102380009102ba00055978008301e900f7ff320095
:10239000c82ade00055978008301e900f3ff320006
:1023a0000400e000f1ff320011d9ba00eeff37005f
:1023b0007e2b040000000000d42b0400000000006d
:1023c000263c040000000000f83b04000000000070
:1023d000903c0400000000005e3c0400000000008f
:1023e00078370400000000003437040000000000cb
:1023f0009837040000000000fc15040000000000f5
:102400003e1604000000000020160400000000003a
:10241000301704000000000003f0a200889fbe00f7
:102420008a9fbe008c1f7800fa000700010133006c
:102430006450e1004f0032006420e100520032009d
:1024400003826c0007003b000905d0000306d000a2
:10245000820f54000c065d000200390002003200b9
:1024600089017800030678008582550004003d004c
:102470000003fd008103fd008502ea008b85420018
:10248000840f720002003b0060001000e080180022
:102490006011b8000005eb007a28e1000a0039005d
:1024a00006007800c75ddd00f707b2008780750081
:1024b0002d003700828171000a01780061056000fb
:1024c0008180d1000080d3008502e900f9ff3b0044
:1024d000060440008784480002003b0060041400aa
:1024e000e0841c000988a300070032008a81710083
:1024f00082817100610164008904d1000884d300e5
:102500008b05e800170037000978a30013003a0094
:102510000b00e000130034008b05e90008044400c0
:1025200089844c000a4474000978a3000d003a0025
:102530000b00e000070034008b05e90008044400ac
:1025400089844c0001003a000b0020000978a300a8
:10255000f7ff32000001eb000200370082817100ba
:102560000a017800700007000cf0a70001f0a0003d
:10257000b90037006420e10002003a00838f6c004c
:10258000b90033000801be000200be00b2003700ef
:10259000889fbe008a9fbe008c1f78009d000700a8
:1025a000a400330003866c006450e1002e0032006a
:1025b0006420e100330032006150e1002f0032005e
:1025c0006120e1003100320085855500eb07b00045
:1025d000090020000804200005003700080444001a
:1025e00089844c000a0031000603430087834b00b6
:1025f0000001530081815b00f8ff33000203be003d
:102600000800a0000804440089844c00f6ff39004b
:10261000c639dd0083017300010032001300200081
:102620008904d1000884d3000998a3000500320072
:102630000800a7000300a0008904d1000884d3008b
:102640008b05e8008904d1000884d3000001eb0069
:102650000281d2003400070001f0a1000cf0a700b5
:1026600001f0a0007c0037006420e1007e00320011
:102670000801be000200be00f7ff37006120e10044
:10268000790032006000b800f3ff3700000020003e
:1026900001f82700f0ff370014002000b9003700d0
:1026a000f4ff2f00b70037000001be004400070010
:1026b0000470a70003f0a10003f8a30013003a0080
:1026c0006509b10010003200090035006928e100f9
:1026d0000200350001002800000005000000400055
:1026e000818048008502e900fcff3a0000000600f6
:1026f000f88f4200050035008100d1000080d30032
:102700008502e800fcff3a00000006008000eb00b4
:10271000000005004f89de0082017800b400370018
:102720006011b800c20037008100200061805500b0
:102730000b003d000b00200061fe2f000100e100b6
:102740001d00340082817100610164008904d100a0
:102750000884d3000000e800faff3a00710020006e
:102760006100640003007000020060000900320094
:1027700061044400e0844c000988a5000500320093
:102780008b05e8006808e10002003a008904d100e6
:102790000884d300f20f20000258e10005003d003c
:1027a000c75ddd00f907b200898075000800780078
:1027b000000006000bf827008b00780000000500e1
:1027c000c70ade00f107b200f50fb20008003200c0
:1027d000e1cf4200020032000170a0002400050099
:1027e000810f70000100320004080500440005005c
:1027f000810f700002003a00140005008502e90014
:102800000000400081c04800fcff3b000170a000b8
:10281000240005000004be00e9ff07000003be001d
:102820000405be000200be00e5ff0700844f7500ee
:10283000000006000200be006450e1000500360002
:102840006420e100020036000968a30001003a009c
:102850000800be000160a0004f0678004f05be00d2
:102860004f04be0000000600f0ff2f00f1ff27001c
:10287000f9ff3700889fbe008a9fbe008c1f78003a
:10288000e4ff0700ebff330003866c006450e100b7
:10289000240032006420e100270032006150e10092
:1028a000220032006120e100210032008b854200cd
:1028b000eb07b1000134b800003ab8000804420048
:1028c00089844a00013ab8000030b800888040008e
:1028d00009014a00040033000000400081804800e4
:1028e000020149008b05e900c909dd008301700080
:1028f0000100320013002000c814de004814dd007f
:102900004709de001200b200c808de00088470002b
:1029100085ff070001f0a1000cf0a70001f0a00066
:10292000cdff37006120e100cfff32000801be007b
:102930000200be00f7ff37006150e100fcff3a00e3
:10294000c9ff37006022b800060220000000d00056
:102950008180d2000482d2008582d2000000a000d3
:102960000202520083825a00030031000202420038
:1029700083824a000000a1000603e900f3ff3a0049
:1029800000000600889fbe008a9fbe00841f78005a
:10299000a0ff07004f00780011003300f0ff2f0068
:1029a000838f6c0006003b00040565000a00a70049
:1029b0000800370009f0a6001000200008003700ca
:1029c000820f5400838f5c00030039001000200048
:1029d00001003e000000200009f0a7000000ea000e
:1029e0004f05be004f04be000000e00000000600de
:1029f000881f7800030478000300e00007003d0012
:102a000060001000e080180060011900e0811900ea
:102a100002003b0001f02d00030037000400070016
:102a200008f0a70001f0a0004f04780000000600a5
:102a3000889fbe008a9fbe00008270000402710061
:102a400004827100260032000004be000200be00b5
:102a50006011b8006b092000950220000182cf00b0
:102a60000a0039000541b1000082cf00070039009b
:102a70000541b1000982cf00040039000541b100d1
:102a80000882cf00010039000541b1000542520023
:102a9000120032000a003b00828171006101640073
:102aa0008100d1000080d3008984d3000884d30042
:102ab0008b05e8000442e800f7ff3a000700370002
:102ac0000804440089844c000000480081804800cc
:102ad0008b05e9000442e900f9ff3a0012ff070004
:0c2ae0004f05be004f04be0000000600c1
:020000040000fa
:020000040002f8
:04aff400031c00003a
:020000040000fa
:020000040002f8
:04aff8000f890000bd
:020000040000fa
:020000040002f8
:04affc007f3e000094
:020000040000fa
:1020000010110400000000005c4304000000000008
:102010005c430400000000005c430400000000007a
:102020005c430400000000005c430400000000006a
:102030005c430400000000005c430400000000005a
:10204000ac2c040000000000a432040000000000da
:102050005c430400000000005c430400000000003a
:10206000ca32040000000000f0320400000000004a
:102070005c430400000000005c430400000000001a
:102080000c18040000000000e61704000000000027
:102090005c430400000000005c43040000000000fa
:1020a0005c430400000000005c43040000000000ea
:1020b000982c0400000000005c43040000000000b5
:1020c0005c430400000000005c43040000000000ca
:1020d0005c430400000000005c43040000000000ba
:1020e00016330400000000003c3304000000000030
:1020f0005c430400000000005818040000000000c9
:1021000032180400000000005c43040000000000de
:102110005c430400000000005c4304000000000079
:102120005c430400000000005c4304000000000069
:102130005c430400000000005c4304000000000059
:102140005c430400000000005c4304000000000049
:102150005c430400000000005c4304000000000039
:102160005c430400000000005c4304000000000029
:102170005c430400000000005c4304000000000019
:102180005c430400000000005c4304000000000009
:102190005c430400000000005c43040000000000f9
:1021a0005c430400000000005c43040000000000e9
:1021b0005c43040000000000a418040000000000bc
:1021c0007e180400000000005c43040000000000d2
:1021d0005c430400000000005c43040000000000b9
:1021e0005c43040000000000f01804000000000040
:1021f000ca180400000000005c4304000000000056
:102200005c430400000000005c4304000000000088
:102210005c430400000000005c4304000000000078
:020000040000fa
:1000080004100000081000000c1000001010000080
:10001800141000000c1100000c1100000c1100005d
:10002800181000001c100000201000002410000010
:100038000c110000281000002c10000030100000e7
:1000480034100000381000003c1000004010000080
:1000580044100000481000000c1100000c110000b2
:100068004c10000050100000541000005810000000
:100078005c1000000c11000060100000641000000b
:100088000c110000681000006c10000070100000d7
:1000980074100000781000007c1000008010000030
:1000a80084100000881000000c1100000c110000e2
:1000b8000c1100008c10000090100000941000003b
:1000c800981000009c100000a0100000a410000070
:1000d800a8100000ac1000000c1100000c1100006a
:1000e8000c110000b0100000b41000000c1100004a
:1000f8000c110000b8100000bc1000000c1100002a
:100108000c1100000c1100000c1100000c11000073
:100118000c1100000c110000c01000000c110000b0
:100128000c110000c4100000c8100000cc10000022
:100138000c1100000c1100000c1100000c11000043
:10014800d01000000c1100000c1100000c11000070
:100158000c110000d41000000c1100000c1100005c
:100168000c110000d8100000dc100000e0100000a6
:10017800e4100000e8100000ec100000f01000008f
:10018800f4100000f8100000fc100000001100003e
:1001980004110000081100000c1100000c110000ef
:1001a8000c1100000c1100000c1100000c110000d3
:1001b8000c1100000c1100000c1100000c110000c3
:1001c8000c1100000c1100000c1100000c110000b3
:1001d8000c1100000c1100000c1100000c110000a3
:1001e8000c1100000c1100000c1100000c11000093
:0801f8000c1100000c110000c5
:020000040000fa
:102aec001201000000020000000000000040000085
:102afc0066660000030000000000000001020000f8
:102b0c000001000009020000120000000101000099
:102b1c0000a00000320900000400000000000000ca
:102b2c00ff000000ff000000040300000904000087
:102b3c001a0300004f0000006c0000006900000048
:102b4c006e00000020000000430000006f00000039
:102b5c006c0000006c0000006500000067000000c5
:102b6c006500000044030000450000006c000000fc
:102b7c006500000063000000610000006e000000b2
:102b8c0069000000730000006d000000730000007d
:102b9c00200000004d000000690000006e000000e5
:102bac006900000070000000720000006f0000005f
:102bbc006a00000065000000630000007400000063
:102bcc002000000032000000200000004600000041
:102bdc0069000000720000006d000000770000002a
:0c2bec00610000007200000065000000a5
:020000040000fa
:102bf8000400fa00000f7800214798000000000048
:102c08001e0078001000900090007800002020003e
:102c180000806000e00f5000f9ff3a001e007800c5
:102c2800a00090002e4090000080fb0080087800f3
:102c38000080fa00000006000200fa00000f780089
:102c4800000000001e0078001000900010007800be
:102c580061006000e00f5000faff32001e007800ab
:102c68003000900010007800004078000080fa00e2
:102c7800000006000400fa00000f780021479800c1
:102c8800000000001e007800d01090001e007800a0
:102c980020109000808f5000faff32001e0078004c
:102ca800901090001e0078004010900000804000b6
:102cb800ae409000014878001e0078004010900057
:102cc8008000e8001e0078002010900000017800c5
:102cd800110009008280d8008000fd008000780083
:102ce8001e007800411098001e00780050109000d7
:102cf8008000e8001e007800511098001e0078003f
:102d0800d01090001e00780030189000808f50007e
:102d1800080039001e007800100090009e0078001e
:102d2800910090001101780001402000810071009d
:102d3800010878000080fa00000006000400fa008c
:102d4800100798001e009000d00090001e00900010
:102d580050009000100178001e009000604890001c
:102d68000080fb00130020000018dd000080ea004e
:102d780000006100800878001e009000501090004c
:102d8800e00f500026003a001e009000100090004e
:102d98009e0090009100900011017800f1bf2f0073
:102da80081006100010878001e0037001e009000b5
:102db800901090001e00900030109000008040009d
:102dc800104f78001e009000301090008000e8003e
:102dd8001e009000201090000001780011000900ea
:102de8008280d8008000fd00800078001e009000de
:102df800311098001e009000501090008000e900eb
:102e08001e009000511098001e00900020009000b5
:102e18001e4178008280fb0001087800010037001d
:102e2800000000001e009000100090009000780044
:102e38000020200000806000e00f500004003a00ed
:102e48001e00900050109000e00f5000d7ff3a008d
:102e58000080fa00000006000400fa00100798003d
:102e6800000000001e00900020189000e00f5000a5
:102e7800fcff32001e009000e01090001e00900041
:102e88000018900000804000104f78001e0090004d
:102e9800001890008000e8001e009000701090005c
:102ea80000017800110009008280d8008000fd0030
:102eb800800078001e009000011898001e00900005
:102ec800201890008000e9001e009000211898004a
:102ed8001e4078000080fa00000006000200fa0098
:102ee800000f78001e007800d00090001e007800c7
:102ef80050009000100178001e0078007048900083
:102f08000080fb00130020000018dd000080ea00ac
:102f180000006100800878001b0037001e00780060
:102f2800e01090001e00780010189000808040008b
:102f38001e007800300090001000780000407800f3
:102f4800804878001e007800101890008000e80083
:102f58001e00780070109000000178001100090030
:102f68008280d8008000fd00800078001e00780074
:102f7800111898001e007800201890008000e800c2
:102f88001e007800211898001e007800100090009c
:102f9800100078006100600000407800e04f5000a9
:102fa800060032001e007800a01890001e0078006d
:102fb80070109000808f5000d8ff3a000080fa000f
:102fc800000006003600f800809fbe00829fbe0009
:102fd800849fbe00869fbe003200f80000202000bb
:102fe800900188000000fa00809b200053ff070032
:102ff8000080fa003200f9004f03be004f02be0005
:103008004f01be004f00be003600f9000040060028
:103018003600f800809fbe00829fbe00849fbe00dd
:10302800869fbe003200f800002020009001880032
:103038000000fa00809b2000a8ff07000080fa002b
:103048003200f9004f03be004f02be004f01be0020
:103058004f00be003600f900004006003600f800b8
:10306800809fbe00829fbe00849fbe00869fbe00d8
:103078003200f80000202000900188000000fa00cb
:10308800409f20002dff07000080fa003200f90061
:103098004f03be004f02be004f01be004f00be00ee
:1030a8003600f900004006003600f800809fbe0098
:1030b800829fbe00849fbe00869fbe003200f8003b
:1030c80000202000900188000000fa00409f2000a6
:1030d80082ff07000080fa003200f9004f03be00ab
:1030e8004f02be004f01be004f00be003600f9007f
:1030f800004006003600f800809fbe00829fbe0098
:10310800849fbe00869fbe003200f8000020200089
:10311800900188000000fa0000a3200007ff0700c4
:103128000080fa003200f9004f03be004f02be00d3
:103138004f01be004f00be003600f90000400600f7
:103148003600f800809fbe00829fbe00849fbe00ac
:10315800869fbe003200f800002020009001880001
:103168000000fa0000a320005cff07000080fa00be
:103178003200f9004f03be004f02be004f01be00ef
:103188004f00be003600f900004006003600f80087
:10319800809fbe00829fbe00849fbe00869fbe00a7
:1031a8003200f80000202000900188000000fa009a
:1031b800c0a62000e1fe07000080fa003200f900f6
:1031c8004f03be004f02be004f01be004f00be00bd
:1031d8003600f900004006003600f800809fbe0067
:1031e800829fbe00849fbe00869fbe003200f8000a
:1031f80000202000900188000000fa00c0a62000ee
:1032080036ff07000080fa003200f9004f03be00c5
:103218004f02be004f01be004f00be003600f9004d
:10322800004006000800fa001007980021079800df
:10323800320798001e009000e00f5000290035006a
:10324800e10f500003003400e20f50001300320079
:10325800250037000000eb00000f78000a00370057
:103268002e00900010407800ae0090008100e80029
:1032780021079800425580008040780002007800bd
:103288004d0407001e0fe8009e0078003e009000e5
:10329800808f5000f2ff3900130037000000eb0068
:1032a800000f78000a0037002e00900010407800c8
:1032b800ae0090008100e800210798005255800078
:1032c80080407800020078003b0407001e0fe800e9
:1032d8009e0078003e009000808f5000f2ff390079
:1032e80001003700000000003e0090000080fa0056
:1032f800000006000000fa00190f0700406d2000ca
:10330800801f78005701200086c0b3008082eb0040
:1033180064c0b3008001eb00022f2000212f2000a1
:10332800c0aa2000241007008f87e900a06d2000a4
:10333800801f7800a70120000043eb008082eb008b
:1033480074c0b3008001eb00022f2000212f200061
:1033580020ac2000181007008f87e90040002000eb
:10336800801f780030002000801f780080c0b300e4
:10337800801f78000040eb00801f7800406a200022
:10338800801f7800406a2000801f7800b0c0b3001a
:10339800801f7800c0c0b300801f78004709200054
:1033a80046082000852220006422200043222000b5
:1033b8002222200001222000809b20006b000700b1
:1033c800f087570060002000801f78005000200020
:1033d800801f780080c0b300801f78000040eb0099
:1033e800801f7800606a2000801f7800606a2000d3
:1033f800801f7800e0c0b300801f7800f0c0b300e1
:10340800801f7800670920006608200085232000b7
:1034180064232000432320002223200001232000ce
:10342800409f200051000700f0875700d00120007e
:10343800801f7800c0012000801f780080c0b30082
:10344800801f780080c0b300801f7800a06a200029
:10345800801f7800206a2000801f780020c0b300f9
:10346800801f780030c0b300801f7800e709200073
:10347800e60820008525200064252000432520003b
:10348800222520000125200000a320003700070086
:10349800f0875700f0012000801f7800e00120002d
:1034a800801f780080c0b300801f78000040eb00c8
:1034b800801f7800606b2000801f7800606b200000
:1034c800801f780080c0b300801f780090c0b300d0
:1034d800801f7800e7092000e6082000852b2000df
:1034e800642b2000432b2000222b2000012b2000de
:1034f800c0a620001d000700f08757000000eb0061
:10350800801f78000000eb00801f78000000eb00af
:10351800801f78000000eb00801f78000000eb009f
:10352800801f780010002000801f7800e5c4b300d9
:1035380006002000676924000002eb008001eb0010
:1035480022ac2000c1aa2000809b20007200070046
:10355800ec875700809b200040558800809b200006
:10356800505588000080fa00000006001000fa009c
:10357800000f780011079800220798003307980079
:103588004407980055079800660798007707980041
:103598001e0078009e009000010878001e00780048
:1035a800ae009000110098001e007800be00900048
:1035b800210098001e007800ce009000310098008d
:1035c8001e007800de009000410098001e00780080
:1035d800ee009000510098001e007800fe00900058
:1035e800610098001e0078008ef8970061489800e6
:1035f8001e007800eef09700714898001e007800d1
:10360800aeb89700010898001e0078009eb8970091
:10361800110898001e0078008ef09700415098001d
:103628001e007800eee89700515098001e007800c0
:10363800eeb09700310898001e007800deb09700c1
:10364800410898001e0078008000eb00510898009f
:103658001e0078008000eb00610898001e007800ca
:103668008000eb00710898001e0078008000eb00d5
:10367800011098001e0078008000eb0011109800df
:103688001e0078008000eb00211098001e007800d2
:103698008000eb00311098001e0078008000eb00dd
:1036a800411098001e0078008000eb00511098002f
:1036b8001e0078008000eb00611098001e00780062
:1036c8008000eb00711098001e0078008000eb006d
:1036d800011898001e0078008000eb00111898006f
:1036e8001e0078008000eb00211898001e0078006a
:1036f80011002000311898001e0078008000eb00af
:10370800411898001e0078008000eb0051189800be
:103718000080fa00000006001000fa00881f7800f8
:10372800000f7800110798002207980033079800c7
:10373800440798005607980067079800654f980057
:103748001e007800100078008000eb000108780067
:103758001e00900060009000e10f40000e02320051
:103768002e00900060009000e10f40000c02320033
:103778001e00900000089000e00f500069003a0019
:103788002e00900000089000e00f500065003a00fd
:103798001e0090005b0f07001e009000b60f070088
:1037a8002e009000300f07001e0078009e00900049
:1037b800510898001e0090009e00780001089800ab
:1037c8001e0090008000eb00110898001e00900079
:1037d8008000eb00210898001e007800ae009000e1
:1037e800610898002e0090009e007800010898005b
:1037f8002e0090008000eb00110898002e00900029
:103808008000eb0021089800113a8000f00b20009e
:1038180000816000600420007105200023742000ee
:103828008049780081497800824978001e0090001c
:10383800f00090001e0090007000900010017800c9
:103848001e009000204890000080fb00f303200039
:103858000018dd000080ea000000610080087800a0
:103868001e009000f00090001e0090007000900074
:10387800100178001e007800b00990001e0090002a
:10388800204890000080fb000018dd000000710057
:10389800800878001e007800800890001e007800dc
:1038a80000089000100178001e0078004050900039
:1038b8000080fb00f30320000018dd000080ea0010
:1038c80000006100800878001e00780080089000e1
:1038d8001e00780000089000100178002e0090006b
:1038e800e00190001e007800405090000080fb002e
:1038f8000018dd000000710080087800113a80008f
:103908000004200000817000600420007105200080
:103918002374200080497800814978008249780022
:103928000a0037001e007800d00890001e009000a2
:10393800808f50009c013a001e007800e00890003b
:103948002e009000808f500099013a003e009000b0
:10395800e00f5000870032004e009000e00f50004a
:10396800840032003e00900060009000e10f4000ab
:10397800910132004e00900060009000e10f40007d
:103988008f0132003e00900000089000e00f5000c8
:1039980069003a004e00900000089000e00f5000c7
:1039a80065003a003e009000d60e07003e009000e9
:1039b800310f07004e009000ab0e07001e00780084
:1039c800be009000710898003e0090009e007800ac
:1039d800010898003e0090008000eb001108980054
:1039e8003e0090008000eb00210898001e0078003f
:1039f800ce009000011098004e0090009e007800c4
:103a0800010898004e0090008000eb001108980013
:103a18004e0090008000eb0021089800113a8000c9
:103a2800f00b200000816000600420007105200078
:103a38002374200080497800814978008249780001
:103a48003e009000f00090003e0090007000900052
:103a5800100178003e009000204890000080fb0094
:103a6800f30320000018dd000080ea000000610078
:103a7800800878003e009000f00090003e00900022
:103a880070009000100178001e007800c0099000b6
:103a98003e009000204890000080fb000018dd00e8
:103aa80000007100800878001e00780090089000df
:103ab8001e00780010089000100178001e007800a1
:103ac800505090000080fb00f30320000018dd0038
:103ad8000080ea0000006100800878001e0078007d
:103ae800900890001e0078001008900010017800df
:103af8004e009000e00190001e00780050509000a9
:103b08000080fb000018dd000000710080087800cc
:103b1800113a800000042000008170006004200039
:103b280071052000237420008049780081497800bd
:103b3800824978000a0037001e007800f0089000db
:103b48003e009000808f50001f013a001e00780050
:103b5800801090004e009000808f50001c013a00a9
:103b68001e0078001000780001202000010878006d
:103b7800060037003e009000e00f500016013a00a2
:103b88004e009000e00f500015013a0018c0b30035
:103b98000240220043a724005e009000ee0090003f
:103ba800bdfa0700e00f500001003c000044eb00a4
:103bb800e04f5400040032000040220041a72400d6
:103bc800500798006107980018c0b300024022000f
:103bd800431724005e009000ee009000acfa070046
:103be800e00f5000010035000044eb00e04f5400a6
:103bf80004003200004022004117240050079800ba
:103c08006107980018c0b30002402200432724002f
:103c18005e009000ee0090009dfa0700e00f500053
:103c2800010034000044eb00e04f54000f00320064
:103c38001e007800400490005e019000ee019000a4
:103c480000402200419724004ffa0700020020009c
:103c580003f02300eff9070091fa0700000078004d
:103c68000000e900000c7800150037001e007800fd
:103c7800100078009e00780091007800910078008c
:103c88000130a000010878001e0078004004900070
:103c98005e019000ee0190000040220041a7240040
:103ca80039fa07000200200003f02300d9f90700c1
:103cb8007bfa0700000078000000e900000c78009b
:103cc800ee48900050c4b30080cf5000040032008a
:103cd800ee48900050c6b30080cf500008003a006c
:103ce8001e007800100078009e007800910078008f
:103cf800910078000110a000010878001800370032
:103d0800ee489000f0c4b30080cf500004003200a9
:103d1800ee489000f0c6b30080cf500008003a008b
:103d28001e007800100078009e007800910078004e
:103d3800910078000120a0000108780008003700f1
:103d4800ee489000e0c4b30080cf50000400320079
:103d5800ee489000e0c6b30080cf5000a2003a00c1
:103d68004eb89700e20f500008003a001e00780095
:103d7800100078009e00780091007800910078008b
:103d88000100a00001087800030037004eb8970032
:103d9800e10f500096003a002eb89700e00f50004f
:103da80004003a001e007800c15f21004118980005
:103db800360037001e007800100090009e00780042
:103dc800910090001101780001002200810071002b
:103dd800010878001e007800aeb89700111098000e
:103de8001e0078009eb89700211098001e007800e9
:103df8008000eb00311098001e0078008000eb0076
:103e0800411098001e0078008000eb0051109800c7
:103e18001e007800beb89700311898001e00780080
:103e2800e1632100411898001e007800d00090003e
:103e38001e00780050009000100178001e007800e5
:103e4800604890000080fb00130020000018dd008f
:103e58000080ea0000006100800878001e007800f9
:103e6800e00090001e0078006000900010017800cb
:103e78001e007800604890000080fb0013002000be
:103e88000018dd0000007100800878000eb8970067
:103e9800e00f500004003a001e0078000162210083
:103ea800511898002b0037001e0078008eb8970034
:103eb800611098001e007800feb0970071109800fd
:103ec8001e0078008000eb00011898001e007800a2
:103ed8008000eb00111898001e0078008000eb00ad
:103ee800211898001e0078000173210051189800cd
:103ef8001e007800d00090001e007800500090004e
:103f0800100178001e007800704890000080fb00c7
:103f1800130020000018dd000080ea0000006100a6
:103f2800800878001e007800e00090001e007800ed
:103f380060009000100178001e0078007048900022
:103f48000080fb00130020000018dd000000710055
:103f5800800878001e007800100078009e00780025
:103f6800910078001101780001002800810071009b
:103f7800010878001e007800100090009e0078006c
:103f8800910090001101780001402000810071002b
:103f980001087800170037000000000015003700fe
:103fa8000000000013003700000000001100370077
:103fb800000000000f003700000000000d0037006f
:103fc800000000000b003700000000000900370067
:103fd800000000000700370000000000050037005f
:103fe8000000000003003700000000000100370057
:103ff800000000004f0478000080fa00000006006e
:104008000200fa00000f78001e00780010009000ef
:104018009e0078009100900011017800f1bf2f00f8
:1040280081006100010878001e0078001000780007
:104038008000eb00010878001e007800e000900086
:104048001e00780060009000100178001e007800c3
:10405800604890000080fb00130020000018dd007d
:104068000080ea0000006100800878001e007800e7
:10407800e00090001e0078006000900010017800b9
:104088001e007800704890000080fb00130020009c
:104098000018dd000080ea00000061008008780058
:1040a8001e0078008000eb00411898001e00780080
:1040b8008000eb00511898001e007800500890000e
:1040c800e00f50002f003200113a8000f00b200062
:1040d8000081600060042000710520002374200026
:1040e8008049780081497800824978001e0078006c
:1040f80050089000f00090001e00780050089000d2
:1041080070009000100178001e00780050089000a0
:10411800204890000080fb00f30320000018dd0019
:104128000080ea000000610080087800113a8000f1
:104138000004200000817000600420007105200048
:1041480023742000804978008149780082497800ea
:104158001e007800500890008000eb0001089800cd
:104168001e00780050089000e60c07001e0078003a
:1041780050089000400d07001e0078008000eb00fa
:10418800510898001e00780060089000e00f500069
:1041980028003200113a8000f00b200000816000f6
:1041a80060042000710520002374200080497800f5
:1041b80081497800824978001e00780080089000c4
:1041c8001e00780000089000100178001e0078009a
:1041d800405090000080fb00f30320000018dd0031
:1041e8000000710080087800113a80000004200067
:1041f80000817000600420007105200023742000f5
:104208008049780081497800824978001e0078004a
:10421800600890008000eb00010898001e007800fc
:1042280060089000900c07001e0078008000eb00ea
:10423800610898001e00780070089000e00f500098
:104248002f003200113a8000f00b2000008160003e
:104258006004200071052000237420008049780044
:1042680081497800824978001e0078007008900023
:10427800f00090001e007800700890007000900018
:10428800100178001e007800700890002048900007
:104298000080fb00f30320000018dd000080ea0026
:1042a8000000610080087800113a800000042000b6
:1042b8000081700060042000710520002374200034
:1042c8008049780081497800824978001e0078008a
:1042d800700890008000eb00010898001e0078002c
:1042e80070089000870c07001e0078007008900086
:1042f800e10c07001e0078008000eb0071089800b0
:104308001e00780000109000e00f500028003200d6
:10431800113a8000f00b200000816000600420004a
:1043280071052000237420008049780081497800b5
:10433800824978001e007800900890001e007800de
:1043480010089000100178001e007800505090006e
:104358000080fb00f30320000018dd00000071005e
:1043680080087800113a8000000420000081700065
:104378006004200071052000237420008049780023
:1043880081497800824978001e007800001090006a
:104398008000eb00010898001e00780000109000d3
:1043a800310c07001e0078008000eb000110980017
:1043b8000080fa00000006000400fa00000f7800f0
:1043c800214798001e00780040189000e00f500028
:1043d800050032001e00780040199000ae409000a1
:1043e8001e007800020001000080fa0000000600ac
:1043f8000200fa00000f78001e00780050189000a4
:10440800e00f5000050032001e007800d018900020
:104418001e007800010001000100370000c0eb0019
:104428000080fa00000006000200fa00000f780081
:104438001e007800100090009000780000402000d6
:1044480000806000e00f500008003a001e0078006d
:10445800100090009e0078009100900011017800f3
:104468000140200081007100010878000080fa00f6
:10447800000006000400fa00000f780011079800f9
:10448800080037001e009000104078009e00900041
:104498008100e80011079800804078001e0078002d
:1044a800c5ff07001e00900010407800e04f500044
:1044b800f4ff3a001e007800dbff07000080fa00d6
:1044c800000006000a00fa0020079800310798004b
:1044d800420798004e009000e00f5000870032001d
:1044e8004e009000e10f500004003a00be0090001a
:1044f8000040eb008048780081003700b1c1b3006c
:104508002e009000acff070071c3b3002e0090008e
:10451800a9ff07002e009000c3ff07003e0090008f
:10452800100798004e009000000f78000300370035
:104538000000000001003700000000002e0090007d
:10454800abff0700be009000804878003e00900056
:1045580010407800ed4f50000c003a00be0090006b
:104568000040eb0080487800a1c0b3002e00900006
:1045780091ff0700d1c0b3002e0090008eff070006
:104588002e009000a8ff07005d0037003e00900055
:1045980010407800fb4f500016003a00b1c1b3003c
:1045a8002e00900084ff070081c3b3002e00900006
:1045b80081ff0700b1c1b3002e0090007eff070005
:1045c800b1c5b3002e0090007bff0700b1c4b30053
:1045d8002e00900078ff07002e00900092ff070041
:1045e8001e009000300798004e009000000f7800e1
:1045f800410037003e00900010407800e84f50001e
:10460800050032003e00900090407800f0c7b300eb
:1046180080cf50001a003a00be0090001e009000a3
:10462800808f50001000360081c0b3002e0090002b
:1046380061ff070001c2b3002e0090005eff070073
:1046480081c0b3002e0090005bff07002e00900091
:1046580075ff07003e0090000000e9003007980051
:104668001e0fe8000500370071c0b3002e0090004f
:1046780051ff07002e0090006bff07001e00370057
:104688001e007800e10f500006003a0071c0b30028
:104698002e00900048ff07002e00900062ff0700e0
:1046a800150037003e00900010407800ff4f500082
:1046b8009fff36003e00900090407800e0c7b300ae
:1046c80080cf50009cff3e003e00900010407800d4
:1046d800804078002e00900037ff07002e009000e1
:1046e80051ff07003e0090000000e80030079800e6
:1046f8001e0fe90091ff370090ff3700000000000f
:104708000080fa00000006000400fa009424a800c3
:104718000000eb00b0248800f00f2000702488000f
:104728009424a900a04a2000100798000040eb003c
:10473800004f7800080037009e4078000180fb0099
:10474800000040009e009000008040008000eb00c8
:10475800010878001e4fe8001e407800ef4f500017
:10476800f5ff3600d00020005025880000c4b300b3
:1047780000ecb70080ad20001060880080c8b3004e
:1047880001ecb70080b120003060880080c0b30021
:1047980005ecb7000000eb00302588000000eb00b6
:1047a8004025880000c020004800de00c0248800a2
:1047b8008644a80086e4a8008804a80094a4a90058
:1047c8000040eb0071ebb7000040eb0074ebb70062
:1047d80010c0b30072ebb70000c0eb0064ebb70089
:1047e80000c0eb0065ebb70000000000a1248000ca
:1047f8000004200000806000e00f5000fbff3a003a
:104808000080fa00000006000600fa00502480002c
:1048180062006000e00f500005003200f00f200039
:104828007024880020002000502488008e00370063
:104838005024800064006000e00f50000300320044
:104848004000200050248800870037005024800052
:1048580070006000e00f50000300320000012000eb
:104868005024880080003700512480000002200076
:1048780000806000e00f50000300320000022000ba
:104888005024880078003700512480000008200058
:1048980000806000e00f5000030032000008200094
:1048a80050248800700037005024800061006000a8
:1048b800e00f5000340032000040eb0071ebb7000d
:1048c8000800370080002000502488000000000005
:1048d80000000000000000000000000000000000d0
:1048e800000000005024800068006000e00f5000c5
:1048f800f4ff3a00a04a2000100798000040eb009f
:10490800004f7800080037009e4078000180fb00c7
:10491800000040009e009000008040008000eb00f6
:10492800010878001e4fe8001e407800ef4f500045
:10493800f5ff360000c4b30000ecb70080ad2000de
:104948001060880080c8b30001ecb70080b1200077
:104958003060880080c0b30005ecb7000000eb00b1
:10496800b0248800f00f200050248800d0002000d8
:104978005025880010c0b30074ebb70010c0b30016
:1049880072ebb700380037005024800068006000e0
:10499800e00f500034003200902480004300de0015
:1049a800c200dd0000c02000008040002007980001
:1049b8002e0090001040900059ebb7002e00900098
:1049c8001040780058ebb7002e00900010009000bf
:1049d800d05a8800902480000040780073ebb7001c
:1049e80080002000502488000040eb0070ebb700e6
:1049f80059cbbf008080fb00c0032000008060000e
:104a080041022000810f50000800320041032000bd
:104a1800810f500003003200e40f500005003200ff
:104a2800050037001200070003003700af02070037
:104a380001003700de02070070cbbf000080fb00da
:104a48006100600000407800e04f5000060032002e
:104a580000c4b30000ecb70040c8b30005ecb700d1
:104a680040c8b30001ecb7000080fa00000006005f
:104a78000200fa00d05a8000000f78001e0078006b
:104a880010407800c1b52000804878001e0fe8006b
:104a98001e00780010407800c1b5200090409800b2
:104aa8001e0fe8001e00780010407800c1b52000f5
:104ab800a04098001e0fe8001e0078001040780003
:104ac800c1b52000b04098001e0fe8001e00780015
:104ad80010407800c1b52000c04098001e0fe800c3
:104ae8001e00780010407800c1b52000d040980022
:104af8001e0fe8001e00780010407800c1b52000a5
:104b0800e04098001e0fe8001e0078001040780072
:104b1800c1b52000f04098001e0fe80000c4b300a3
:104b280000ecb70080c0b30005ecb700c0b52000aa
:104b380010407800e04f500006003500c0b5200056
:104b480030009000e00f50000200320080ccb3002b
:104b58000100370080c8b30001ecb70094a4a90095
:104b680000c0eb0064ebb70000c0eb0065ebb700da
:104b7800c0b52000104078008080fb0000062000af
:104b880000806000e00f50000400320001042000a3
:104b9800810f5000030032000400370008000700ae
:104ba80005003700ee0307000300370070cbbf0095
:104bb8000004a00070ebb7000080fa0000000600b7
:104bc8000600fa00c0b52000104090000080fb00ed
:104bd800cf80de00b200200003002000820f5000ca
:104be800838f58003c023e00006001000b00370034
:104bf800aa00370038023700a8003700360237000d
:104c0800390137005401370033023700c901370032
:104c1800d0013700f801370010023700c0b5200076
:104c2800104078000080fb007f006000e10f50001a
:104c380010003200e20f50002d003200e00f50004b
:104c480091003a003160800072cbbf008048780044
:104c5800306080008000e8000040eb008048780069
:104c680020c0b30004ecb70080ccb30005ecb7005b
:104c78008900370074cbbf000080fb00e20f5000b2
:104c880003003200e30f5000050032001700370020
:104c980070cbbf000004a00070ebb7001300370012
:104ca800c0b5200040409000e04f50000c003a0092
:104cb800316080000040eb00804878003060800060
:104cc8008000e8000040eb008048780020c0b30076
:104cd80004ecb70080ccb30005ecb7000300370044
:104ce80070cbbf000004a00070ebb7006a0037006b
:104cf80074cbbf000080fb00e20f500003003200bd
:104d0800e30f5000250032005b003700c0b52000db
:104d1800404090000080fb006f006000e00f5000f2
:104d28001a003a0031608000c0b520004040900071
:104d3800e04f500006003d0005ccbf000080fb009e
:104d4800640060004280de00004078000500370003
:104d580001ccbf000080fb00640060004280de00e0
:104d68000040780080487800306080008000e800cb
:104d78000040eb008048780020c0b30004ecb70086
:104d880080ccb30005ecb7000300370070cbbf0040
:104d98000004a00070ebb7003a003700a04a2000da
:104da80010079800c0b52000404090006f4f600089
:104db8009e4078000180fb000000400080007800e1
:104dc800c0b52000404090000000fb004f00de000e
:104dd80000807000c200dd0000c02000008040009c
:104de800200798009e4078000180fb0000004000ea
:104df8009e0090000080400090007800c0b5200020
:104e080040409000e04f500002003d00400020006c
:104e1800010037008000200000806000e00f500093
:104e280011003200316080002e0090001040900088
:104e38000080fb00640060004280de0000407800d3
:104e480080487800306080008000e8000040eb0077
:104e58008048780020c0b30004ecb70080ccb300d1
:104e680005ecb7000300370070cbbf000004a000ba
:104e780070ebb7000300370070cbbf000004a00040
:104e880070ebb7000400370070cbbf000004a0002f
:104e980070ebb7009301370092013700c0b52000ce
:104ea800104078000080fb007f006000e00f500099
:104eb80003003200e20f50001c003200850037006a
:104ec800c0b52000204090000080fb00e10f50009a
:104ed80012003a00c0b5200010409000e14f500089
:104ee80006003a0021b7200091407800e0cfb300d7
:104ef80000c0600072ebb7000300370072cbbf0040
:104f08000004a00072ebb7000040eb0004ecb7000f
:104f180080ccb30005ecb7000300370070cbbf00ae
:104f28000004a00070ebb7006e00370074cbbf0020
:104f38000080fb00e20f500003003200e30f500036
:104f4800100032005f003700c0b5200040409000dc
:104f58000080fb006f006000e00f500005003a0081
:104f68000040eb0004ecb70080ccb30005ecb700c0
:104f78000300370070cbbf000004a00070ebb7003f
:104f880053003700a04a200010079800c0b5200041
:104f9800404090006f4f60001e407800e04f500086
:104fa8003e0032009e4078000180fb000000400077
:104fb80080007800c0b52000404090000000fb0051
:104fc8004f00de0000807000c200dd0000c020003d
:104fd8000080400020079800c0b5200040409000a5
:104fe800e04f500017003d009e4078000180fb0014
:104ff800000040009e0090000080400010007800f3
:1050080064006000e00f50000a003200c0b52000c4
:1050180010409000e14f500002003a000040eb00c1
:105028000100370040c8b300ae00900090409800df
:105038001a00370070cbbf000004a00070ebb70067
:10504800160037009e4078000180fb0000004000f9
:105058009e0090000080400010007800680060000a
:10506800e00f50000a003200c0b520001040900048
:10507800e14f500002003a0080c8b3000100370039
:1050880040c8b300ae00900090409800030037007d
:1050980070cbbf000004a00070ebb70070cbbf005e
:1050a8000080fb0061006000e00f500004003a003f
:1050b8000040eb0004ecb70080ccb30005ecb7006f
:1050c8000300370070cbbf000004a00070ebb700ee
:1050d8000400370070cbbf000004a00070ebb700dd
:1050e80000013700ff003700c0b5200020409000c5
:1050f800e04f500004003d0070cbbf000004a0004a
:1051080070ebb700f7003700c0b5200010407800fa
:1051180064ebb700c0b520001040900065ebb70005
:10512800c0b5200010009000305b8800c0b520009a
:1051380020009000405b8800c0b52000300090003f
:10514800505b88000040eb0004ecb70080ccb30053
:1051580005ecb700e3003700c0b520001040780028
:1051680064ebb700c0b520001040900065ebb700b5
:10517800c0b5200010009000305b8800c0b520004a
:1051880020009000405b8800c0b5200030009000ef
:10519800505b8800c0b52000304090000080fb00c4
:1051a800e20f500014003200e30f500034003200c8
:1051b800e10f50005a003a0060572900605b8800f0
:1051c800605b8000104078000080fb00705b880006
:1051d800c0b52000b0009000705b8000808f500048
:1051e80003003100c0b5200030009000705b8800db
:1051f800100107004e003700c0b520002040900085
:105208000080fb00e00f500003003a00805829009e
:10521800605b88000300370070cbbf000004a0006b
:1052280070ebb70070cbbf000080fb00610060002e
:10523800e00f500011003a00605b80000080e80039
:10524800104078006eebb700605b800063004000a0
:10525800104078006febb700c0b52000b000900098
:10526800705b8000808f500003003100c0b52000c3
:1052780030009000705b8800ee0007002c003700bb
:10528800c0b52000204090000080fb00e10f5000d6
:1052980007003200e20f500008003200e00f500013
:1052a80009003a00a0592900605b8800090037000e
:1052b800e0592900605b880006003700805b290000
:1052c800605b88000300370070cbbf000004a000bb
:1052d80070ebb70070cbbf000080fb00610060007e
:1052e800e00f50000d003a00605b8000104078002d
:1052f8000080fb00705b8800c0b52000b000900003
:10530800705b8000808f500003003100c0b5200022
:1053180030009000705b8800c6000700040037006a
:1053280070cbbf000004a00070ebb7006d00370021
:105338006c0037003160800071cbbf008048780076
:1053480010c0b30004ecb70080ccb30005ecb70084
:1053580064003700c0b5200020409000e14f5000a5
:1053680021003e00a04a20001007980010c0b3009a
:10537800004f7800080037009e4078000180fb004d
:10538800000040009e009000008040008000eb007c
:10539800010878001e4fe8001e407800ef4f5000cb
:1053a800f5ff3600c0b520002040900071ebb70033
:1053b80071cbbf000080fb00e00f500003003a00f3
:1053c80020c0b30074ebb7000200370030c0b30050
:1053d80074ebb7000040eb0004ecb70080ccb300de
:1053e80005ecb7003f00370070cbbf000004a000f9
:1053f80070ebb7003b00370074cbbf000080fb00a8
:10540800e30f500011003a00c0b520004040900062
:10541800e04f500008003a00316080000040eb0087
:105428008048780010c0b30004ecb70080ccb3000b
:1054380005ecb7000300370070cbbf000004a000e4
:1054480070ebb700000000002600370070cbbf00eb
:105458000004a00070ebb7002200370074cbbf0037
:105468000080fb00e30f500017003a00c0b5200091
:1054780040409000e04f50000e003a00c0b52000b8
:10548800204090000080fb00e00f500005003a002b
:105498000040eb0004ecb70080ccb30005ecb7008b
:1054a8000700370070cbbf000004a00070ebb70006
:1054b8000300370070cbbf000004a00070ebb700fa
:1054c800000000000700370070cbbf000004a000f8
:1054d80070ebb7000300370070cbbf000004a000da
:1054e80070ebb7000080fa00000006000000fa0028
:1054f80073cbbf008080fb00000f2000008060009d
:10550800e00f500028003a0064cbbf008080fb0009
:10551800000620000080600001022000810f50007a
:105528001d00320001042000810f500018003200d5
:10553800e00f50001b003a0065cbbf000080fb0065
:10554800e50f500003003200e60f50000d00320056
:105558001200370066cbbf000080fb00b024880033
:10556800b0248000e00f500003003a0010c0b300e0
:1055780074ebb7000200370020c0b30074ebb7002b
:10558800020037002b00070000000000030037006e
:10559800580207000100370000000000000000006a
:1055a80001003700000000000080fa00000006003b
:1055b8000000fa0073cbbf008080fb00000f2000c2
:1055c80000806000e00f500018003a0064cbbf0074
:1055d8008080fb000006200000806000010220009f
:1055e800810f50000500320001042000810f500097
:1055f80004003a00450207000300370000000000dd
:10560800010037000000000000c4b30000ecb70040
:1056180080c8b30001ecb7000040eb0004ecb70011
:1056280080ccb30005ecb700000000000080fa0051
:10563800000006000200fa00715b8000f003200001
:10564800808f500009003e00705b8000004f78009a
:105658000000eb00705b880000c0eb0064ebb70053
:1056680000c0eb0065ebb7000500370000c4b300cd
:10567800004f7800705b80000004b100705b880008
:105688000040eb00104798000c00370031608000a4
:105698001e4090000080fb0000814000615b80009c
:1056a80011407800004978000100e800605b88003c
:1056b8001e4090000040e800104798001e409000ef
:1056c8009e4f5000f1ff39001e40780004ecb700ef
:1056d80005ccbf0000c0ea0002c4b30082406000ed
:1056e80080c8b30000c0700005ecb7000080fa0065
:1056f800000006000200fa00000f7800d2cc2c004f
:10570800c3d42300a0d7200057040700a0d7200047
:105718002405070000d92000160b07000000eb0045
:10572800405d88000c003700a0d720003b0507002b
:10573800e00f50000800320000da20000d0b0700cf
:10574800305d80000000e800305d88001000200017
:10575800405d88000400370080902000140807008e
:10576800e00f5000f0ff3200405d8000e00f500075
:1057780002003a000000eb00305d8800a0d720004e
:1057880047050700605f880080d92000f90a0700f4
:10579800a0d72000150507000080fa0000000600c9
:1057a8000200fa00000f7800905c80008000eb0097
:1057b800f107070040d620000c050700e4b72200d7
:1057c80011002000f226210033a8230080d32000f6
:1057d800750507000080fa00000006000200fa00c4
:1057e800881f7800000f780048003700105d80009f
:1057f800e10f50000a003a00f15c8000e05c800094
:1058080000804000f05c88000000eb00105d88001c
:10581800605c80008000eb00d70707001d003700a0
:10582800105d8000e00f50001a003a0010002000c0
:10583800105d88009e007800f05c8000808f50002a
:10584800050031000080eb00e05c88000000eb0000
:10585800d05c8800080037009e007800f05c80006b
:10586800808f50000400360010002000e05c8800a3
:1058780010002000d05c8800d05c80008000780098
:10588800705c8000bc070700605c8000110020008d
:10589800b907070020d22000c204070000d9200061
:1058a800b40a0700010037000000000020d22000e1
:1058b800fb040700505d880080d92000ad0a07006e
:1058c800505d8000cf80de0090f307000002be002c
:1058d800b05c8000c15c800018c0b3000001be004d
:1058e8000400be006cf30700e00f500001003c000c
:1058f8000044eb00e04f5400ebff320020d22000c0
:10590800ba04070020d22000d40407009e007800c3
:10591800f05c8000808f5000b4ff3a004f0478009c
:105928000080fa00000006003200f800881f7800a6
:1059380008202000980188004f0478000000fa0031
:105948008660a9000080fa003200f90000400600d5
:105958003600f800809fbe00829fbe00849fbe0074
:10596800869fbe003200f8000020200090018800c9
:105978000000fa008440a900605e8000e00f50003b
:1059880014003a00f05b800089070700605d88001a
:10599800605d8000e00f50000b003200605d800009
:1059a800b05d8800615d8000505e8000808f50008f
:1059b800030036000000eb00005e8800020037009c
:1059c800a0002000005e880010002000605e8800b3
:1059d8005b003700605e8000e10f500014003a0061
:1059e800005c800072070700705d8800705d8000b1
:1059f800e00f50000b003200705d8000c05d880031
:105a0800715d8000505e8000808f5000030036007a
:105a180010002000105e880002003700b00020004f
:105a2800105e880020002000605e88004400370077
:105a3800605e8000e20f500014003a00105c8000a5
:105a48005b070700805d8800805d8000e00f5000e4
:105a58000b003200805d8000d05d8800815d800091
:105a6800505e8000808f5000030036002000200028
:105a7800205e880002003700c0002000205e8800f9
:105a880030002000605e88002d003700605e8000d6
:105a9800e30f500014003a00205c80004407070020
:105aa800905d8800905d8000e00f50000b00320090
:105ab800905d8000e05d8800915d8000505e800010
:105ac800808f50000300360030002000305e8800d0
:105ad80002003700d0002000305e8800400020001f
:105ae800605e880016003700605e8000e40f50009a
:105af80013003a00305c80002d070700a05d880085
:105b0800a05d8000e00f50000b003200a05d800017
:105b1800f05d8800a15d8000505e8000808f50009d
:105b28000300360040002000405e88000200370075
:105b3800e0002000405e88000000eb00605e880006
:105b48000080fa003200f9004f03be004f02be0089
:105b58004f01be004f00be003600f90000400600ad
:105b68000200fa00c0b52000104090000080fb0041
:105b78006101b9000080eb008080eb00020040006a
:105b880083804800a200200003002000820f5000fc
:105b9800838f5800d2003e00006001002e003700bd
:105ba80076003700080037007c0037008300370094
:105bb8009a003700a700370044003700b0003700cc
:105bc800b7003700be003700b05d8000000f7800d6
:105bd80031608000b05d80004800de000040780041
:105be80080487800306080008000e800c05d800058
:105bf8004800de000040780080487800306080006f
:105c08008080e800d05d80004800de000040780019
:105c18008048780030608000e3004000e05d80004c
:105c28004800de000040780080487800306080003e
:105c3800e4004000f05d80004800de00004078008d
:105c48008048780050c0b30004ecb70080ccb300a3
:105c580005ecb700a500370031608000005e8000c9
:105c68000040780080487800306080008000e800bc
:105c7800105e800000407800804878003060800026
:105c88008080e800205e800000407800804878002e
:105c980030608000e3004000305e80000040780003
:105ca8008048780030608000e4004000405e80005a
:105cb800004078008048780050c0b30004ecb7007a
:105cc80080ccb30005ecb70088003700d05e8000b8
:105cd800000f7800316080001e407800804878000e
:105ce800306080008000e8001e4090008048780006
:105cf800e05e8000000f7800306080008080e8005f
:105d08001e4078008048780030608000e300400042
:105d18001e40900080487800f05e8000000f7800f8
:105d280030608000e40040001e4078008048780021
:105d380030608000e50040001e40900080487800f8
:105d4800305f8000000f780030608000e60040007f
:105d58001e4078008048780030608000e7004000ee
:105d68001e4090008048780080c0b30004ecb70063
:105d780080ccb30005ecb7005c003700c0b520004c
:105d880010009000505e88000040eb0004ecb70063
:105d980080ccb30005ecb70054003700c0b5200034
:105da80010009000e05f88000040eb0004ecb700b2
:105db80080ccb30005ecb7004c003700f05c8000e5
:105dc800000f7800316080001e407800804878001d
:105dd800306080008000e8001e4090008048780015
:105de800b05f8000000f7800306080008080e8009d
:105df8001e4078008048780030608000e300400052
:105e08001e4090008048780040c0b30004ecb70002
:105e180080ccb30005ecb70034003700905c8000fc
:105e2800010028005406070044bd2200110020008c
:105e3800f226210033a0230040d62000da03070011
:105e480020c0b30004ecb70080ccb30005ecb70069
:105e580026003700c0b52000100090000100200087
:105e68002df20700b05c8800c15c88000040eb00a0
:105e780004ecb70080ccb30005ecb7001b0037007a
:105e8800c0b5200010009000105f88000040eb00b3
:105e980004ecb70080ccb30005ecb7001300370062
:105ea800c0b5200010009000005f88000040eb00a3
:105eb80004ecb70080ccb30005ecb7000b0037004a
:105ec800c0b5200010009000205f88000040eb0063
:105ed80004ecb70080ccb30005ecb7000300370032
:105ee80070cbbf000004a00070ebb7000080fa0080
:105ef800000006000000fa0070cbbf000004a000fc
:105f080070ebb7000080fa00000006000000fa00fd
:105f180070cbbf000004a00070ebb7000080fa004f
:105f2800000006000000fa0000102000203a880057
:105f3800e20107000a040700950607008a0807001f
:105f4800f1f90700010037002ffa070074cbbf00f2
:105f5800e34f5000fcff3a009660a8006240a8009a
:105f68008660a9009440a8008440a90020d220009f
:105f78005203070020d220003803070080d32000f6
:105f88004e03070080d320003403070040d62000ca
:105f98004a03070040d6200030030700a0d720009e
:105fa80046030700a0d720002c03070040932000d9
:105fb800f05b8800f05b800087050700a094200054
:105fc800005c8800005c80008305070000962000c4
:105fd800105c8800105c80007f0507006097200037
:105fe800205c8800205c80007b050700c0982000aa
:105ff800305c8800305c800077050700209a20001c
:10600800405c8800405c80007305070040882000e1
:10601800b05b8800b05b80003a050700b05b800089
:106028008001eb0004002000051224000001eb00b1
:106038008000780000c8200004070700b05b8000db
:1060480001712200cc050700a0892000c05b8800f0
:10605800c05b80002b050700c05b80008001eb005f
:1060680004002000852c24000001eb00800078004b
:1060780020c92000f5060700c08d2000e05b8800dd
:10608800e05b80001f050700e05b80008001eb00fb
:1060980004002000852c24000001eb00800078001b
:1060a80040ca2000e9060700008b2000d05b88006a
:1060b800d05b800013050700d05b80008001eb00f7
:1060c80004002000852c24000001eb0080007800eb
:1060d80060cb2000dd06070080852000905c8800ea
:1060e800905c800007050700905c80008001eb0051
:1060f80004002400c5712400e2d420008000780048
:1061080080cc2000d106070080902000a05c880089
:10611800a05c8000d404070000802000705c880028
:10612800705c8000f704070020842000805c8800f1
:10613800805c8000f3040700805c80001100200070
:106148008d050700c0822000605c8800605c8000cc
:10615800ec040700e0912000505c8800505c80004f
:10616800e804070002002000832c240020d220002d
:1061780057020700a4f90700405c80008c0507005f
:10618800905f8800915f8000f0c32900808f5000e5
:1061980002003e0000002800e05f8800915f800058
:1061a800f0c32900808f5000020036004008280004
:1061b800e05f8800e15f8000f05c8000808f500025
:1061c80004003200a05f80000000e800a05f8800a3
:1061d800020037000000eb00a05f8800a05f80008d
:1061e800e20f5000040036000000eb00a05f8800ba
:1061f800e05f800079fd0700005e8000ea0f500034
:106208000f003a0000c42900005f880000a62e0095
:10621800105f88000000eb00205f8800305f80007e
:10622800e00f500006003a000000eb00005f880015
:106238000000eb00105f88000000eb00205f880082
:10624800105e8000eb0f50000f003a0000e22400bf
:10625800005f880000e22400105f880000e224004c
:10626800205f8800305f8000e10f500006003a0090
:106278000000eb00005f88000000eb00105f880062
:106288000000eb00205f8800205e8000ec0f5000cb
:106298000f003a000000eb00005f880000a62e0007
:1062a800105f880000c42900205f8800305f8000ec
:1062b800e20f500006003a000000eb00005f880083
:1062c8000000eb00105f88000000eb00205f8800f2
:1062d800305e8000ed0f50000f003a000000eb0028
:1062e800005f880000a62e00105f88000000eb0009
:1062f800205f8800305f8000e30f500006003a00fe
:106308000000eb00005f88000000eb00105f8800d1
:106318000000eb00205f8800405e8000ee0f500018
:106328000f003a0000a62e00005f88000000eb0076
:10633800105f88000000eb00205f8800305f80005d
:10634800e40f500006003a000000eb00005f8800f0
:106358000000eb00105f88000000eb00205f880061
:10636800d15e8000005f8000808f50000300310004
:1063780010002000a05e88000c003700d15e80006d
:10638800005f8000808f5000030036000080eb0023
:10639800a05e8800050037000000eb00a05e8800c2
:1063a800d05f80000000e800d05f8800e15e8000d8
:1063b800105f8000808f5000030031001000200023
:1063c800b05e88000c003700e15e8000105f80003e
:1063d800808f5000030036000080eb00b05e88001c
:1063e800050037000000eb00b05e8800d05f800039
:1063f8000000e800d05f8800f15e8000205f800028
:10640800808f50000300310010002000c05e88001b
:106418000c003700f15e8000205f8000808f500004
:10642800030036000080eb00c05e880005003700de
:106438000000eb00c05e8800d05f80000000e8002c
:10644800d05f8800d15e8000a05e800000804000a0
:10645800d05e8800e15e8000b05e80000080400071
:10646800e05e8800f15e8000c05e80000080400031
:10647800f05e8800d15e8000e05b8000be0407000b
:10648800e15e8000c05b8000bb040700f15e800015
:10649800d05b8000b804070036ff37000200fa001e
:1064a800000f78001e007800ec0107001e0078003d
:1064b80010089000e00f5000050032001e00780020
:1064c800900890001e007800010001001a003700b3
:1064d8001e00780020089000e00f500014003200e1
:1064e8001e00780000089000e00f50000a003200fb
:1064f8001e007800a00890001e007800010001002e
:106508001e007800000890008000e9001e00780056
:1065180001089800080037001e007800f7010700fe
:106528001e0078008000eb00210898000200370068
:106538001e007800f10107000080fa000000060044
:106548003600f800809fbe00829fbe00849fbe0078
:10655800869fbe003200f8000020200090018800cd
:106568000000fa0020d22000ccff07000080fa00cb
:106578003200f9004f03be004f02be004f01be00bb
:106588004f00be003600f900004006003600f80053
:10659800809fbe00829fbe00849fbe00869fbe0073
:1065a8003200f80000202000900188000000fa0066
:1065b80080d32000b9ff07000080fa003200f900fc
:1065c8004f03be004f02be004f01be004f00be0089
:1065d8003600f900004006003600f800809fbe0033
:1065e800829fbe00849fbe00869fbe003200f800d6
:1065f80000202000900188000000fa00e0d420006c
:10660800a6ff07000080fa003200f9004f03be0021
:106618004f02be004f01be004f00be003600f90019
:10662800004006003600f800809fbe00829fbe0032
:10663800849fbe00869fbe003200f8000020200024
:10664800900188000000fa0040d6200093ff070060
:106658000080fa003200f9004f03be004f02be006e
:106668004f01be004f00be003600f9000040060092
:106678003600f800809fbe00829fbe00849fbe0047
:10668800869fbe003200f80000202000900188009c
:106698000000fa00a0d7200080ff07000080fa0061
:1066a8003200f9004f03be004f02be004f01be008a
:1066b8004f00be003600f900004006000000fa0056
:1066c800b0002000801f78004700200036c0b300cb
:1066d8004509200044082000031020002210200053
:1066e8004110200020d22000330007008f87e900e6
:1066f800c0002000801f78008003eb0076c0b30044
:10670800450920004408200063102000c210200022
:106718000111200080d32000270007008f87e9009f
:10672800d0002000801f78001700200086c0b3002a
:106738004509200044082000a3102000e210200092
:1067480021112000e0d420001b0007008f87e900fa
:10675800e0002000801f780027002000b6c0b300aa
:10676800650920006408200043112000a2112000c0
:10677800e111200040d620000f0007008f87e900b4
:10678800f0002000801f780037002000c6c0b3004a
:10679800650920006408200083112000c211200030
:1067a80001122000a0d72000030007008f87e9000e
:1067b8000080fa00000006001000fa00000f7800c0
:1067c800110798002207980033079800440798009b
:1067d80055079800464f9800770798001e007800e4
:1067e8009e009000010878001e007800ae0090001e
:1067f800110098001e007800be009000210098004b
:106808001e007800ce009000310098001e0078002d
:10681800de009000410098001e007800ce489000ed
:10682800214898001e007800fe0090006100980042
:106838001e007800ceb89700710098001e007800fe
:106848008000eb00010898001e0078008000eb0033
:10685800110898001e0078008000eb0021089800bd
:106868000080fa00000006000600fa00881f780081
:10687800000f7800120798002307980018c0b3008b
:10688800d27b230063f823001e009000ae00900026
:1068980081ef0700e00f500001003c000044eb00ce
:1068a800e04f540069003a0018c0b300d27b2300bf
:1068b80063e823001e009000ae00900076ef07000a
:1068c800e00f500001003c000044eb00e04f540092
:1068d800120032001e007800c40007001e00780075
:1068e8001000780001032000010878001e007800dd
:1068f8001004900002402200437724001e009000fc
:10690800ae009000d9ef070065ef0700000078009f
:106918000000e900000c78004d00370018c0b300f3
:10692800d27b230063d023001e009000ae009000ad
:1069380059ef0700e00f500001003c000044eb0055
:10694800e04f5400120032001e007800a700070034
:106958001e0078001000780001022000010878006d
:106968001e00780010049000024022004387240093
:106978001e009000ae009000bcef070048ef070033
:10698800000078000000e900000c780030003700b3
:1069980018c0b300d27b230063b823001e00900008
:1069a800ae0090003cef0700e00f500001003c00f3
:1069b8000044eb00e04f5400120032001e00780043
:1069c8008a0007001e0078001000780001012000ee
:1069d800010878001e007800100490000240220090
:1069e800439f24001e009000ae0090009fef070018
:1069f8002bef0700000078000000e900000c780089
:106a0800130037001e007800780007001e00780089
:106a1800100078008000eb00010878001e00780064
:106a2800100490000240220043b724001e0090008a
:106a3800ae0090008def070019ef07000000780006
:106a48000000e900000c7800010037000000000099
:106a58004f0478000080fa00000006000400fa00e5
:106a6800889fbe00100798001e0090001000780054
:106a78009000780000032000008060004400de00e1
:106a8800000f78001e007800c200dd0000dc200046
:106a9800008040001004be001e009000100090000e
:106aa80010007800010020001bef07000200200002
:106ab80003f8230057ee07000001be000800be00df
:106ac8006aef07004f04be000080fa0000000600cd
:106ad8000600fa00000f78001207980023079800b4
:106ae8001e019000ae0190000000200001f8230074
:106af800a5ee07000001be001e0078005aff07003f
:106b08000080fa00000006000200fa00000f78007a
:106b18001e007800d1ff07000001be000000200021
:106b280001f8230098ee07000080fa000000060034
:106b38000400fa00889fbe00100798001e0090000d
:106b480010007800900078000003200000806000aa
:106b58004400de00000f78001e007800c200dd004f
:106b680000dc2000008040001004be001e009000e1
:106b7800100090001000780001002000e6ee0700e9
:106b88000200200003f8230022ee07000001be00e7
:106b98000800be0035ef07004f04be000080fa0071
:106ba800000006000200fa00000f78001e007800be
:106bb8002a0007001e007800200090008000eb00eb
:106bc800010878001e007800100078009e00780008
:106bd80091007800110178000100280081007100ff
:106be800010878000080fa00000006000200fa00a0
:106bf800000f78001e007800100078009e007800d2
:106c08009100780011017800f1ff270081006100f0
:106c1800010878000080fa00000006000200fa006f
:106c2800000f78001e007800300090009000780077
:106c38001e007800204890000080fb001200200011
:106c48000010dd00808060000100ea000100700093
:106c58004f00de000080fa00000006000200fa0083
:106c6800000f78001e007800b00090001e00780029
:106c780030009000100178001e0078002048900035
:106c88000080fb00130020000018dd000080ea00ef
:106c980000006100800878000080fa00000006000b
:106ca8000200fa00000f78001e0078002000900013
:106cb800100078000080fa00000006000200fa00c8
:106cc800000f78001e007800c00090001e007800b9
:106cd80040009000100178001e00780020489000c5
:106ce8000080fb00130020000018dd000000710088
:106cf800800878000080fa00000006000200fa0010
:106d0800000f78001e007800c00090001e00780078
:106d180040009000100178001e0078002048900084
:106d28000080fb00130020000018dd000080ea004e
:106d380000006100800878000080fa00000006006a
:106d48000800fa00000f780012079800230798003f
:106d5800310798001e007800e8ff07001e01900028
:106d6800ae0190001e007800bffe07001e007800ec
:106d78008000eb00010898001e007800be0090001b
:106d8800110898001e0078008000eb002108980088
:106d98001e007800c9ff07001e00780081ff070069
:106da8000080fa00000006000a00fa00000f7800d0
:106db80012079800230798003107980044079800a5
:106dc8001e007800cdff07001e019000ae01900064
:106dd8001e007800a4fe07001e007800be00900088
:106de800010898001e0078008000eb001108980048
:106df8001e007800ce009000210898001e00780040
:106e0800aeff07001e00780066ff07000080fa004a
:106e1800000006000200fa00000f78001e0078004b
:106e2800b6ff07001e0078008cff07001e007800e0
:106e38006eff07001e0078008000eb000108980034
:106e48001e0078008000eb00110898001e007800f2
:106e58008000eb00210898000080fa00000006007e
:106e68000400fa00000f7800110798001e00900037
:106e7800e00f50000d0032001e00780090007800ee
:106e88001e00780010007800100178001e007800bd
:106e9800604090000080fb00130020000018dd0017
:106ea80000007100800878000d0037001e0078008f
:106eb800900078001e00780010007800100178001b
:106ec8001e007800604090000080fb001300200046
:106ed8000018dd000080ea000000610080087800ea
:106ee8000080fa00000006000200fa00000f780097
:106ef8001e00780010007800900078001e007800ce
:106f0800604090000080fb00120020000010dd00af
:106f1800808060000100ea00010070004f00de0080
:106f28000080fa00000006000200fa00000f780056
:106f38001e00780040009000401988002023a80017
:106f4800000000000019800061006000e00f5000a0
:106f5800fcff3200001880000080fa0000000600e4
:106f68000200fa00406d2000801f780047012000d1
:106f78000043eb008082eb0054c0b3008001eb00bb
:106f8800822d2000a12d2000008020000a0107008a
:106f98008f87e900806d2000801f7800970120000e
:106fa80086c0b3008082eb0044c0b3008001eb00d0
:106fb800822d2000a12d200060812000fe00070006
:106fc8008f87e900a06c2000801f7800a7002000b0
:106fd8000043eb008082eb0044c0b3008001eb006b
:106fe800822e2000a12e2000c0822000f20007007f
:106ff8008f87e900006d2000801f780017012000ae
:1070080086c0b3008082eb0054c0b3008001eb005f
:10701800822e2000a12e200020842000e6000700f8
:107028008f87e900c06d2000801f7800d7012000fd
:1070380086c0b300f5002000f4c0b300234e200042
:10704800822c2000a12c200080852000da00070077
:107058008f87e900006d2000801f7800070120005d
:107068000043eb008082eb0034c0b3008001eb00ea
:10707800822e2000a12e2000e0862000ce000700ee
:107088008f87e900206c2000801f780027002000ef
:107098000043eb008082eb0084c0b3008001eb006a
:1070a800822d2000a12d200040882000c20007006a
:1070b8008f87e900c06c2000801f7800c70020007f
:1070c8000043eb008082eb00b4c0b3008001eb000a
:1070d800822d2000a12d2000a0892000b6000700e5
:1070e8008f87e900406c2000801f7800470020004f
:1070f8000043eb008082eb0094c0b3008001eb00fa
:10710800822d2000a12d2000008b2000aa0007005e
:107118008f87e900206c2000801f7800370020004e
:1071280086c0b3008082eb00a4c0b3008001eb00ee
:10713800822d2000a12d2000608c20009e000700d9
:107148008f87e900a06c2000801f7800b70020001e
:1071580086c0b3008082eb000042eb008001eb00a8
:10716800822d2000a12d2000c08d20009200070054
:107178008f87e900806d2000801f7800870120003c
:107188000043eb008082eb0014c0b3008001eb00e9
:10719800822d2000a12d2000208f200086000700ce
:1071a8008f87e900606d2000801f7800770120003c
:1071b80086c0b3008082eb0024c0b3008001eb00de
:1071c800822d2000a12d2000809020007a00070049
:1071d8008f87e900606d2000801f7800670120001c
:1071e8000043eb008082eb0034c0b3008001eb0069
:1071f800822d2000a12d2000e09120006e000700c4
:107208008f87e900006c2000801f78008003eb0066
:107218000043eb008002eb000042eb00234e20000d
:10722800822c2000a12c200040932000620007003f
:107238008f87e900006c2000801f7800170020006d
:1072480086c0b3001500200014c0b300234e2000f0
:10725800822c2000a12c2000a094200056000700ba
:107268008f87e900c06c2000801f7800d7002000bd
:1072780086c0b3002500200024c0b300234e2000a0
:10728800822c2000a12c2000009620004a00070034
:107298008f87e9000000eb00801f78008083eb00f7
:1072a8000043eb003500200034c0b300234e20001b
:1072b800822c2000a12c2000609720003e000700af
:1072c8008f87e900c06d2000801f7800c70120006b
:1072d8000043eb004500200044c0b300234e2000cb
:1072e800822c2000a12c2000c0982000320007002a
:1072f8008f87e900206d2000801f7800270120007b
:107308000043eb005500200054c0b300234e20007a
:10731800822c2000a12c2000209a200026000700a3
:107328008f87e9000000eb00000f780007003700a6
:107338001e0078007600b9008000780000802000e8
:1073480000804000480007001e0fe8001e0078007b
:10735800ed0f5000f6ff36000000eb00000f78003c
:10736800070037001e0078007600b900800078001a
:107378004093200000804000970007001e0fe8009f
:107388001e007800e50f5000f6ff3600002e2000a2
:10739800001988000000eb001019880000c42000c4
:1073a800201988000000eb004019880021e3a8009c
:1073b8000080fa00000006001000fa00000f7800b4
:1073c800110798002207980033079800044f980087
:1073d80055079800464f9800770798001e007800d8
:1073e8009e009000010878001e007800ae00900012
:1073f800110098001e007800be009000210098003f
:107408001e0078008e489000614098001e007800a9
:10741800de009000410098001e007800ce489000e1
:1074280021489800fe0090001e0078006100980036
:107438001e007800ceb89700710098001e007800f2
:107448008000eb00010898001e0078008000eb0027
:10745800110898001e0078008000eb0021089800b1
:107468000080fa00000006000200fa00000f780011
:107478001e00780020009000e00f50000d00320040
:107488001e007800a00090001e00780020009000e8
:10749800100178001e007800604090000080fb001a
:1074a800130020000018dd000080ea0000006100e1
:1074b800800878001e007800900090001e00780078
:1074c80010009000100178001e00780060409000c5
:1074d8000080fb00130020000018dd000000710090
:1074e800800878001e0078008000eb0011089800e2
:1074f8001e00780081772300210898000080fa0098
:10750800000006000200fa00000f78001e00780054
:1075180020009000e00f50000d0032001e0078009f
:10752800a00090001e007800200090001001780054
:107538001e007800604090000080fb0013002000cf
:107548000018dd000080ea00000061008008780073
:107558001e007800900078001e0078001000780067
:10756800100178001e007800604090000080fb0049
:10757800130020000018dd000080ea000000610010
:10758800800878001e007800900090001e007800a7
:1075980010009000100178001e00780060409000f4
:1075a8000080fb00130020000018dd000080ea00c6
:1075b80000006100800878001e00780041732300f5
:1075c800110898001e007800817723002108980090
:1075d8000080fa00000006000200fa00000f7800a0
:1075e8001e00780020009000e00f50001f003200bd
:1075f8001e007800900090001e0078001000900097
:10760800100178001e007800604090000080fb00a8
:10761800130020000018dd000000710080087800c9
:107628001e007800a00090001e0078002000900046
:10763800100178001e007800604090000080fb0078
:10764800130020000018dd00000071008008780099
:107658001e0078008000eb00110898001e007800da
:1076680081792300210898000100370000000000fc
:107678000080fa00000006000200fa00000f7800ff
:107688001e0078009008900040732300808f5000ff
:107698000c003a001e007800900078001e00780068
:1076a80010007800100178001e00780060409000fb
:1076b8000080fb00130020000018dd0000007100ae
:1076c800800878000080fa00000006000200fa0036
:1076d800000f78001e007800900890004073230087
:1076e800808f50000d003a001e007800900078004e
:1076f8001e00780010007800100178001e00780045
:10770800604090000080fb00130020000018dd009e
:107718000080ea0000006100800878000080fa001c
:10772800000006000200fa00000f78001e00780032
:107738009008900040732300808f50000c003a009e
:107748001e007800900078001e0078001000780075
:10775800100178001e007800604090000080fb0057
:10776800130020000018dd00000069008008780080
:107778000080fa00000006000400fa00000f7800fc
:10778800110798001e00780010089000e00f5000c4
:10779800050032001e007800100990009e0090003d
:1077a8001e007800020001000080fa0000000600b8
:1077b8000200fa00000f78001e00780020089000f0
:1077c800e00f5000050032001e007800a00890006d
:1077d8001e00780001000100010037000080eb0066
:1077e8000080fa00000006000800fa003007980040
:1077f8003e00900000089000000f78000000eb00a9
:10780800100798001e0078003000900010007800e3
:10781800200798001e029000ae0290001e0078001b
:107828002000900010007800010020000001be0038
:107838000400be0041ec0700000078000080fa0058
:10784800000006000a00fa00300798004107980077
:107858003e00900000089000000f78004e00900055
:107868006101b8001e007800200090001000780028
